{
  "_format": "hh-sol-artifact-1",
  "contractName": "MalimaToken",
  "sourceName": "contracts/Malima.sol",
  "abi": [
    {
      "inputs": [],
      "stateMutability": "nonpayable",
      "type": "constructor"
    },
    {
      "inputs": [
        {
          "internalType": "address",
          "name": "",
          "type": "address"
        }
      ],
      "name": "balances",
      "outputs": [
        {
          "internalType": "uint256",
          "name": "",
          "type": "uint256"
        }
      ],
      "stateMutability": "view",
      "type": "function"
    },
    {
      "inputs": [
        {
          "internalType": "uint256",
          "name": "_value",
          "type": "uint256"
        }
      ],
      "name": "burn",
      "outputs": [],
      "stateMutability": "nonpayable",
      "type": "function"
    },
    {
      "inputs": [
        {
          "internalType": "address",
          "name": "_to",
          "type": "address"
        },
        {
          "internalType": "uint256",
          "name": "_value",
          "type": "uint256"
        }
      ],
      "name": "mint",
      "outputs": [],
      "stateMutability": "nonpayable",
      "type": "function"
    },
    {
      "inputs": [],
      "name": "name",
      "outputs": [
        {
          "internalType": "string",
          "name": "",
          "type": "string"
        }
      ],
      "stateMutability": "view",
      "type": "function"
    },
    {
      "inputs": [],
      "name": "symbol",
      "outputs": [
        {
          "internalType": "string",
          "name": "",
          "type": "string"
        }
      ],
      "stateMutability": "view",
      "type": "function"
    },
    {
      "inputs": [],
      "name": "totalSupply",
      "outputs": [
        {
          "internalType": "uint256",
          "name": "",
          "type": "uint256"
        }
      ],
      "stateMutability": "view",
      "type": "function"
    }
  ],
  "bytecode": "0x608060405234801561001057600080fd5b5060408051808201909152601c81527f4574682050726f6f6620496e7465726d65646961746520546f6b656e0000000060208201526000906100529082610136565b5060408051808201909152600381526245504960e81b602082015260019061007a9082610136565b5060066002819055336000908152600360205260409020556101f5565b634e487b7160e01b600052604160045260246000fd5b600181811c908216806100c157607f821691505b6020821081036100e157634e487b7160e01b600052602260045260246000fd5b50919050565b601f82111561013157600081815260208120601f850160051c8101602086101561010e5750805b601f850160051c820191505b8181101561012d5782815560010161011a565b5050505b505050565b81516001600160401b0381111561014f5761014f610097565b6101638161015d84546100ad565b846100e7565b602080601f83116001811461019857600084156101805750858301515b600019600386901b1c1916600185901b17855561012d565b600085815260208120601f198616915b828110156101c7578886015182559484019460019091019084016101a8565b50858210156101e55787850151600019600388901b60f8161c191681555b5050505050600190811b01905550565b610431806102046000396000f3fe608060405234801561001057600080fd5b50600436106100625760003560e01c806306fdde031461006757806318160ddd1461008557806327e235e31461009c57806340c10f19146100bc57806342966c68146100d157806395d89b41146100e4575b600080fd5b61006f6100ec565b60405161007c91906102b0565b60405180910390f35b61008e60025481565b60405190815260200161007c565b61008e6100aa36600461031a565b60036020526000908152604090205481565b6100cf6100ca36600461033c565b61017a565b005b6100cf6100df366004610366565b61020f565b61006f6102a3565b600080546100f99061037f565b80601f01602080910402602001604051908101604052809291908181526020018280546101259061037f565b80156101725780601f1061014757610100808354040283529160200191610172565b820191906000526020600020905b81548152906001019060200180831161015557829003601f168201915b505050505081565b6001600160a01b0382166101c75760405162461bcd60e51b815260206004820152600f60248201526e496e76616c6964206164647265737360881b60448201526064015b60405180910390fd5b80600260008282546101d991906103cf565b90915550506001600160a01b038216600090815260036020526040812080548392906102069084906103cf565b90915550505050565b336000908152600360205260409020548111156102655760405162461bcd60e51b8152602060048201526014602482015273496e73756666696369656e742062616c616e636560601b60448201526064016101be565b806002600082825461027791906103e8565b9091555050336000908152600360205260408120805483929061029b9084906103e8565b909155505050565b600180546100f99061037f565b600060208083528351808285015260005b818110156102dd578581018301518582016040015282016102c1565b506000604082860101526040601f19601f8301168501019250505092915050565b80356001600160a01b038116811461031557600080fd5b919050565b60006020828403121561032c57600080fd5b610335826102fe565b9392505050565b6000806040838503121561034f57600080fd5b610358836102fe565b946020939093013593505050565b60006020828403121561037857600080fd5b5035919050565b600181811c9082168061039357607f821691505b6020821081036103b357634e487b7160e01b600052602260045260246000fd5b50919050565b634e487b7160e01b600052601160045260246000fd5b808201808211156103e2576103e26103b9565b92915050565b818103818111156103e2576103e26103b956fea26469706673582212205279235752c5a90047e1b9ca3e0edf41454d2048d8bdf41c38b7e6754ede1bd564736f6c63430008110033",
  "linkReferences": {},
  "deployedLinkReferences": {}
}